{
  "contractName": "Resode",
  "abi": [
    {
      "anonymous": false,
      "inputs": [
        {
          "indexed": true,
          "internalType": "bytes32",
          "name": "categoryId",
          "type": "bytes32"
        },
        {
          "indexed": false,
          "internalType": "string",
          "name": "categoryName",
          "type": "string"
        }
      ],
      "name": "CategoryCreated",
      "type": "event"
    },
    {
      "anonymous": false,
      "inputs": [
        {
          "indexed": true,
          "internalType": "bytes32",
          "name": "contentId",
          "type": "bytes32"
        },
        {
          "indexed": false,
          "internalType": "string",
          "name": "contentUri",
          "type": "string"
        }
      ],
      "name": "ContentAdded",
      "type": "event"
    },
    {
      "anonymous": false,
      "inputs": [
        {
          "indexed": true,
          "internalType": "bytes32",
          "name": "postId",
          "type": "bytes32"
        },
        {
          "indexed": true,
          "internalType": "address",
          "name": "postOwner",
          "type": "address"
        },
        {
          "indexed": false,
          "internalType": "bytes32",
          "name": "contentId",
          "type": "bytes32"
        },
        {
          "indexed": true,
          "internalType": "bytes32",
          "name": "parentPostId",
          "type": "bytes32"
        },
        {
          "indexed": false,
          "internalType": "bytes32",
          "name": "categoryId",
          "type": "bytes32"
        },
        {
          "indexed": false,
          "internalType": "string",
          "name": "contentUri",
          "type": "string"
        }
      ],
      "name": "PostCreated",
      "type": "event"
    },
    {
      "anonymous": false,
      "inputs": [
        {
          "indexed": true,
          "internalType": "bytes32",
          "name": "postId",
          "type": "bytes32"
        },
        {
          "indexed": true,
          "internalType": "address",
          "name": "postOwner",
          "type": "address"
        },
        {
          "indexed": true,
          "internalType": "address",
          "name": "voter",
          "type": "address"
        },
        {
          "indexed": false,
          "internalType": "uint80",
          "name": "reputationPostOwner",
          "type": "uint80"
        },
        {
          "indexed": false,
          "internalType": "uint80",
          "name": "reputationVoter",
          "type": "uint80"
        },
        {
          "indexed": false,
          "internalType": "int40",
          "name": "postVotes",
          "type": "int40"
        },
        {
          "indexed": false,
          "internalType": "bool",
          "name": "up",
          "type": "bool"
        },
        {
          "indexed": false,
          "internalType": "uint8",
          "name": "reputationAmount",
          "type": "uint8"
        }
      ],
      "name": "Voted",
      "type": "event"
    },
    {
      "inputs": [
        {
          "internalType": "bytes32",
          "name": "",
          "type": "bytes32"
        }
      ],
      "name": "categoryRegistry",
      "outputs": [
        {
          "internalType": "string",
          "name": "",
          "type": "string"
        }
      ],
      "stateMutability": "view",
      "type": "function",
      "constant": true
    },
    {
      "inputs": [
        {
          "internalType": "bytes32",
          "name": "",
          "type": "bytes32"
        }
      ],
      "name": "contentRegistry",
      "outputs": [
        {
          "internalType": "string",
          "name": "",
          "type": "string"
        }
      ],
      "stateMutability": "view",
      "type": "function",
      "constant": true
    },
    {
      "inputs": [
        {
          "internalType": "bytes32",
          "name": "",
          "type": "bytes32"
        }
      ],
      "name": "postRegistry",
      "outputs": [
        {
          "internalType": "address",
          "name": "postOwner",
          "type": "address"
        },
        {
          "internalType": "bytes32",
          "name": "contentId",
          "type": "bytes32"
        },
        {
          "internalType": "bytes32",
          "name": "parentPostId",
          "type": "bytes32"
        },
        {
          "internalType": "bytes32",
          "name": "categoryId",
          "type": "bytes32"
        },
        {
          "internalType": "int40",
          "name": "votes",
          "type": "int40"
        }
      ],
      "stateMutability": "view",
      "type": "function",
      "constant": true
    },
    {
      "inputs": [
        {
          "internalType": "address",
          "name": "",
          "type": "address"
        },
        {
          "internalType": "bytes32",
          "name": "",
          "type": "bytes32"
        }
      ],
      "name": "reputationRegistry",
      "outputs": [
        {
          "internalType": "uint80",
          "name": "",
          "type": "uint80"
        }
      ],
      "stateMutability": "view",
      "type": "function",
      "constant": true
    },
    {
      "inputs": [
        {
          "internalType": "address",
          "name": "",
          "type": "address"
        },
        {
          "internalType": "bytes32",
          "name": "",
          "type": "bytes32"
        }
      ],
      "name": "voteRegistry",
      "outputs": [
        {
          "internalType": "bool",
          "name": "",
          "type": "bool"
        }
      ],
      "stateMutability": "view",
      "type": "function",
      "constant": true
    },
    {
      "inputs": [
        {
          "internalType": "bytes32",
          "name": "_categoryId",
          "type": "bytes32"
        },
        {
          "internalType": "bytes32",
          "name": "_parentPostId",
          "type": "bytes32"
        },
        {
          "internalType": "string",
          "name": "_contentUri",
          "type": "string"
        }
      ],
      "name": "createPost",
      "outputs": [],
      "stateMutability": "nonpayable",
      "type": "function"
    },
    {
      "inputs": [
        {
          "internalType": "bytes32",
          "name": "_postId",
          "type": "bytes32"
        },
        {
          "internalType": "uint8",
          "name": "_reputationChange",
          "type": "uint8"
        },
        {
          "internalType": "bool",
          "name": "_up",
          "type": "bool"
        }
      ],
      "name": "vote",
      "outputs": [],
      "stateMutability": "nonpayable",
      "type": "function"
    },
    {
      "inputs": [
        {
          "internalType": "string",
          "name": "_categoryName",
          "type": "string"
        }
      ],
      "name": "addCategory",
      "outputs": [],
      "stateMutability": "nonpayable",
      "type": "function"
    },
    {
      "inputs": [
        {
          "internalType": "bytes32",
          "name": "_contentId",
          "type": "bytes32"
        }
      ],
      "name": "getContent",
      "outputs": [
        {
          "internalType": "string",
          "name": "",
          "type": "string"
        }
      ],
      "stateMutability": "view",
      "type": "function",
      "constant": true
    },
    {
      "inputs": [
        {
          "internalType": "bytes32",
          "name": "_categoryId",
          "type": "bytes32"
        }
      ],
      "name": "getCategory",
      "outputs": [
        {
          "internalType": "string",
          "name": "",
          "type": "string"
        }
      ],
      "stateMutability": "view",
      "type": "function",
      "constant": true
    },
    {
      "inputs": [
        {
          "internalType": "address",
          "name": "_address",
          "type": "address"
        },
        {
          "internalType": "bytes32",
          "name": "_categoryID",
          "type": "bytes32"
        }
      ],
      "name": "getReputation",
      "outputs": [
        {
          "internalType": "uint80",
          "name": "",
          "type": "uint80"
        }
      ],
      "stateMutability": "view",
      "type": "function",
      "constant": true
    },
    {
      "inputs": [
        {
          "internalType": "bytes32",
          "name": "_postId",
          "type": "bytes32"
        }
      ],
      "name": "getPost",
      "outputs": [
        {
          "internalType": "address",
          "name": "",
          "type": "address"
        },
        {
          "internalType": "bytes32",
          "name": "",
          "type": "bytes32"
        },
        {
          "internalType": "bytes32",
          "name": "",
          "type": "bytes32"
        },
        {
          "internalType": "bytes32",
          "name": "",
          "type": "bytes32"
        },
        {
          "internalType": "int72",
          "name": "",
          "type": "int72"
        }
      ],
      "stateMutability": "view",
      "type": "function",
      "constant": true
    }
  ],
  "bytecode": "0x608060405234801561001057600080fd5b50611d18806100206000396000f3fe608060405234801561001057600080fd5b50600436106100b45760003560e01c806358856c951161007157806358856c95146101b15780635cc15001146101e557806393e43bbe14610215578063b2fae27214610249578063bd3fb85c14610279578063d9cfa7de146102a9576100b4565b80630cbc7007146100b95780631dcb11ec146100e957806321ca87fc1461010557806324905190146101355780632e0dcbf714610165578063473b084c14610181575b600080fd5b6100d360048036038101906100ce9190611226565b6102c5565b6040516100e0919061162f565b60405180910390f35b61010360048036038101906100fe9190611253565b610365565b005b61011f600480360381019061011a91906111e6565b610524565b60405161012c91906115b0565b60405180910390f35b61014f600480360381019061014a91906111e6565b610553565b60405161015c91906116b1565b60405180910390f35b61017f600480360381019061017a919061131a565b61058b565b005b61019b60048036038101906101969190611226565b61061a565b6040516101a8919061162f565b60405180910390f35b6101cb60048036038101906101c69190611226565b6106bf565b6040516101dc95949392919061150a565b60405180910390f35b6101ff60048036038101906101fa9190611226565b610722565b60405161020c919061162f565b60405180910390f35b61022f600480360381019061022a9190611226565b6107c7565b60405161024095949392919061155d565b60405180910390f35b610263600480360381019061025e91906111e6565b610883565b60405161027091906116b1565b60405180910390f35b610293600480360381019061028e9190611226565b6108f4565b6040516102a0919061162f565b60405180910390f35b6102c360048036038101906102be91906112c7565b610994565b005b600260205280600052604060002060009150905080546102e490611ae3565b80601f016020809104026020016040519081016040528092919081815260200182805461031090611ae3565b801561035d5780601f106103325761010080835404028352916020019161035d565b820191906000526020600020905b81548152906001019060200180831161034057829003601f168201915b505050505081565b60003390506000838360405160200161037f92919061160b565b60405160208183030381529060405280519060200120905060008286836040516020016103ae939291906114cd565b60405160208183030381529060405280519060200120905084846002600085815260200190815260200160002091906103e8929190611099565b508260008083815260200190815260200160002060000160006101000a81548173ffffffffffffffffffffffffffffffffffffffff021916908373ffffffffffffffffffffffffffffffffffffffff160217905550816000808381526020019081526020016000206001018190555085600080838152602001908152602001600020600201819055508660008083815260200190815260200160002060030181905550817ffb281bb05c5ef4b3a5f374fffc0b351fe69873776a9d6c289682e1929cb4f08086866040516104bd92919061160b565b60405180910390a2858373ffffffffffffffffffffffffffffffffffffffff16827f9204ee15ea32319b16e4452d5008ab4090873b8255405aa89764af44609a7aef858b8a8a60405161051394939291906115cb565b60405180910390a450505050505050565b60046020528160005260406000206020528060005260406000206000915091509054906101000a900460ff1681565b60036020528160005260406000206020528060005260406000206000915091509054906101000a900469ffffffffffffffffffff1681565b600082826040516020016105a092919061160b565b60405160208183030381529060405280519060200120905082826001600084815260200190815260200160002091906105da929190611099565b50807f42588c2617ffb1b380decf15f2134bd59bb002295bda52fe6e5bf92fc504d249848460405161060d92919061160b565b60405180910390a2505050565b606060016000838152602001908152602001600020805461063a90611ae3565b80601f016020809104026020016040519081016040528092919081815260200182805461066690611ae3565b80156106b35780601f10610688576101008083540402835291602001916106b3565b820191906000526020600020905b81548152906001019060200180831161069657829003601f168201915b50505050509050919050565b60006020528060005260406000206000915090508060000160009054906101000a900473ffffffffffffffffffffffffffffffffffffffff16908060010154908060020154908060030154908060040160009054906101000a900460040b905085565b606060026000838152602001908152602001600020805461074290611ae3565b80601f016020809104026020016040519081016040528092919081815260200182805461076e90611ae3565b80156107bb5780601f10610790576101008083540402835291602001916107bb565b820191906000526020600020905b81548152906001019060200180831161079e57829003601f168201915b50505050509050919050565b600080600080600080600087815260200190815260200160002060000160009054906101000a900473ffffffffffffffffffffffffffffffffffffffff1660008088815260200190815260200160002060010154600080898152602001908152602001600020600201546000808a8152602001908152602001600020600301546000808b815260200190815260200160002060040160009054906101000a900460040b8060040b90509450945094509450945091939590929450565b6000600360008473ffffffffffffffffffffffffffffffffffffffff1673ffffffffffffffffffffffffffffffffffffffff168152602001908152602001600020600083815260200190815260200160002060009054906101000a900469ffffffffffffffffffff16905092915050565b6001602052806000526040600020600091509050805461091390611ae3565b80601f016020809104026020016040519081016040528092919081815260200182805461093f90611ae3565b801561098c5780601f106109615761010080835404028352916020019161098c565b820191906000526020600020905b81548152906001019060200180831161096f57829003601f168201915b505050505081565b60003390506000806000868152602001908152602001600020600301549050600080600087815260200190815260200160002060000160009054906101000a900473ffffffffffffffffffffffffffffffffffffffff1690508073ffffffffffffffffffffffffffffffffffffffff168373ffffffffffffffffffffffffffffffffffffffff161415610a5c576040517f08c379a0000000000000000000000000000000000000000000000000000000008152600401610a5390611691565b60405180910390fd5b60001515600460008573ffffffffffffffffffffffffffffffffffffffff1673ffffffffffffffffffffffffffffffffffffffff168152602001908152602001600020600088815260200190815260200160002060009054906101000a900460ff16151514610b00576040517f08c379a0000000000000000000000000000000000000000000000000000000008152600401610af790611651565b60405180910390fd5b610b0b838387610fbd565b610b4a576040517f08c379a0000000000000000000000000000000000000000000000000000000008152600401610b4190611671565b60405180910390fd5b8315610c4c57600160008088815260200190815260200160002060040160008282829054906101000a900460040b610b82919061173b565b92506101000a81548164ffffffffff021916908360040b64ffffffffff1602179055508460ff16600360008373ffffffffffffffffffffffffffffffffffffffff1673ffffffffffffffffffffffffffffffffffffffff168152602001908152602001600020600084815260200190815260200160002060008282829054906101000a900469ffffffffffffffffffff16610c1d91906117b4565b92506101000a81548169ffffffffffffffffffff021916908369ffffffffffffffffffff160217905550610df0565b600080600088815260200190815260200160002060040160009054906101000a900460040b60040b1315610cd057600160008088815260200190815260200160002060040160008282829054906101000a900460040b610cac9190611965565b92506101000a81548164ffffffffff021916908360040b64ffffffffff1602179055505b8460ff16600360008373ffffffffffffffffffffffffffffffffffffffff1673ffffffffffffffffffffffffffffffffffffffff168152602001908152602001600020600084815260200190815260200160002060009054906101000a900469ffffffffffffffffffff1669ffffffffffffffffffff1610610def578460ff16600360008373ffffffffffffffffffffffffffffffffffffffff1673ffffffffffffffffffffffffffffffffffffffff168152602001908152602001600020600084815260200190815260200160002060008282829054906101000a900469ffffffffffffffffffff16610dc491906119de565b92506101000a81548169ffffffffffffffffffff021916908369ffffffffffffffffffff1602179055505b5b6001600460008573ffffffffffffffffffffffffffffffffffffffff1673ffffffffffffffffffffffffffffffffffffffff168152602001908152602001600020600088815260200190815260200160002060006101000a81548160ff0219169083151502179055508273ffffffffffffffffffffffffffffffffffffffff168173ffffffffffffffffffffffffffffffffffffffff16877f01d21e353645a36d22513edbfe86f2d524130c25320a11ed375056ea54b427af600360008673ffffffffffffffffffffffffffffffffffffffff1673ffffffffffffffffffffffffffffffffffffffff168152602001908152602001600020600087815260200190815260200160002060009054906101000a900469ffffffffffffffffffff16600360008973ffffffffffffffffffffffffffffffffffffffff1673ffffffffffffffffffffffffffffffffffffffff168152602001908152602001600020600088815260200190815260200160002060009054906101000a900469ffffffffffffffffffff166000808d815260200190815260200160002060040160009054906101000a900460040b8a8c604051610fad9594939291906116cc565b60405180910390a4505050505050565b600080600360008673ffffffffffffffffffffffffffffffffffffffff1673ffffffffffffffffffffffffffffffffffffffff168152602001908152602001600020600085815260200190815260200160002060009054906101000a900469ffffffffffffffffffff16905060028169ffffffffffffffffffff16101561105f5760018360ff1614611053576000915081611059565b60019150815b50611091565b8069ffffffffffffffffffff168360026110799190611847565b111561108957600091508161108f565b60019150815b505b509392505050565b8280546110a590611ae3565b90600052602060002090601f0160209004810192826110c7576000855561110e565b82601f106110e057803560ff191683800117855561110e565b8280016001018555821561110e579182015b8281111561110d5782358255916020019190600101906110f2565b5b50905061111b919061111f565b5090565b5b80821115611138576000816000905550600101611120565b5090565b60008135905061114b81611c86565b92915050565b60008135905061116081611c9d565b92915050565b60008135905061117581611cb4565b92915050565b60008083601f84011261119157611190611ba6565b5b8235905067ffffffffffffffff8111156111ae576111ad611ba1565b5b6020830191508360018202830111156111ca576111c9611bab565b5b9250929050565b6000813590506111e081611ccb565b92915050565b600080604083850312156111fd576111fc611bb5565b5b600061120b8582860161113c565b925050602061121c85828601611166565b9150509250929050565b60006020828403121561123c5761123b611bb5565b5b600061124a84828501611166565b91505092915050565b6000806000806060858703121561126d5761126c611bb5565b5b600061127b87828801611166565b945050602061128c87828801611166565b935050604085013567ffffffffffffffff8111156112ad576112ac611bb0565b5b6112b98782880161117b565b925092505092959194509250565b6000806000606084860312156112e0576112df611bb5565b5b60006112ee86828701611166565b93505060206112ff868287016111d1565b925050604061131086828701611151565b9150509250925092565b6000806020838503121561133157611330611bb5565b5b600083013567ffffffffffffffff81111561134f5761134e611bb0565b5b61135b8582860161117b565b92509250509250929050565b61137081611a12565b82525050565b61138761138282611a12565b611b15565b82525050565b61139681611a24565b82525050565b6113a581611a30565b82525050565b6113bc6113b782611a30565b611b27565b82525050565b6113cb81611a3a565b82525050565b6113da81611a47565b82525050565b60006113ec838561172a565b93506113f9838584611aa1565b61140283611bba565b840190509392505050565b60006114188261171f565b611422818561172a565b9350611432818560208601611ab0565b61143b81611bba565b840191505092915050565b600061145360208361172a565b915061145e82611be5565b602082019050919050565b600061147660328361172a565b915061148182611c0e565b604082019050919050565b6000611499601e8361172a565b91506114a482611c5d565b602082019050919050565b6114b881611a8b565b82525050565b6114c781611a7e565b82525050565b60006114d98286611376565b6014820191506114e982856113ab565b6020820191506114f982846113ab565b602082019150819050949350505050565b600060a08201905061151f6000830188611367565b61152c602083018761139c565b611539604083018661139c565b611546606083018561139c565b61155360808301846113c2565b9695505050505050565b600060a0820190506115726000830188611367565b61157f602083018761139c565b61158c604083018661139c565b611599606083018561139c565b6115a660808301846113d1565b9695505050505050565b60006020820190506115c5600083018461138d565b92915050565b60006060820190506115e0600083018761139c565b6115ed602083018661139c565b81810360408301526116008184866113e0565b905095945050505050565b600060208201905081810360008301526116268184866113e0565b90509392505050565b60006020820190508181036000830152611649818461140d565b905092915050565b6000602082019050818103600083015261166a81611446565b9050919050565b6000602082019050818103600083015261168a81611469565b9050919050565b600060208201905081810360008301526116aa8161148c565b9050919050565b60006020820190506116c660008301846114af565b92915050565b600060a0820190506116e160008301886114af565b6116ee60208301876114af565b6116fb60408301866113c2565b611708606083018561138d565b61171560808301846114be565b9695505050505050565b600081519050919050565b600082825260208201905092915050565b600061174682611a3a565b915061175183611a3a565b925081647fffffffff0383136000831215161561177157611770611b43565b5b817fffffffffffffffffffffffffffffffffffffffffffffffffffffff80000000000383126000831216156117a9576117a8611b43565b5b828201905092915050565b60006117bf82611a8b565b91506117ca83611a8b565b92508269ffffffffffffffffffff038211156117e9576117e8611b43565b5b828201905092915050565b6000808291508390505b600185111561183e5780860481111561181a57611819611b43565b5b60018516156118295780820291505b808102905061183785611bd8565b94506117fe565b94509492505050565b600061185282611a74565b915061185d83611a7e565b925061188a7fffffffffffffffffffffffffffffffffffffffffffffffffffffffffffffffff8484611892565b905092915050565b6000826118a2576001905061195e565b816118b0576000905061195e565b81600181146118c657600281146118d0576118ff565b600191505061195e565b60ff8411156118e2576118e1611b43565b5b8360020a9150848211156118f9576118f8611b43565b5b5061195e565b5060208310610133831016604e8410600b84101617156119345782820a90508381111561192f5761192e611b43565b5b61195e565b61194184848460016117f4565b9250905081840481111561195857611957611b43565b5b81810290505b9392505050565b600061197082611a3a565b915061197b83611a3a565b9250827fffffffffffffffffffffffffffffffffffffffffffffffffffffff8000000000018212600084121516156119b6576119b5611b43565b5b82647fffffffff0182136000841216156119d3576119d2611b43565b5b828203905092915050565b60006119e982611a8b565b91506119f483611a8b565b925082821015611a0757611a06611b43565b5b828203905092915050565b6000611a1d82611a54565b9050919050565b60008115159050919050565b6000819050919050565b60008160040b9050919050565b60008160080b9050919050565b600073ffffffffffffffffffffffffffffffffffffffff82169050919050565b6000819050919050565b600060ff82169050919050565b600069ffffffffffffffffffff82169050919050565b82818337600083830152505050565b60005b83811015611ace578082015181840152602081019050611ab3565b83811115611add576000848401525b50505050565b60006002820490506001821680611afb57607f821691505b60208210811415611b0f57611b0e611b72565b5b50919050565b6000611b2082611b31565b9050919050565b6000819050919050565b6000611b3c82611bcb565b9050919050565b7f4e487b7100000000000000000000000000000000000000000000000000000000600052601160045260246000fd5b7f4e487b7100000000000000000000000000000000000000000000000000000000600052602260045260246000fd5b600080fd5b600080fd5b600080fd5b600080fd5b600080fd5b6000601f19601f8301169050919050565b60008160601b9050919050565b60008160011c9050919050565b7f796f75206861766520616c726561647920766f746564207468697320706f7374600082015250565b7f796f7520646f6e2774206861766520656e6f7567682072657075746174696f6e60008201527f20746f20766f7465207468697320706f73740000000000000000000000000000602082015250565b7f796f752063616e6e6f7420766f746520796f7572206f776e20706f7374730000600082015250565b611c8f81611a12565b8114611c9a57600080fd5b50565b611ca681611a24565b8114611cb157600080fd5b50565b611cbd81611a30565b8114611cc857600080fd5b50565b611cd481611a7e565b8114611cdf57600080fd5b5056fea2646970667358221220d0fe3f866ed7a1c955c15e9230ea01c8ee6dd3b83ddba734f8a42c332181179464736f6c63430008060033",
  "immutableReferences": {},
  "source": "// SPDX-License-Identifier: MIT\npragma solidity >=0.4.22 <0.9.0;\n\ncontract Resode {\n    event PostCreated(\n        bytes32 indexed postId,\n        address indexed postOwner,\n        bytes32 contentId,\n        bytes32 indexed parentPostId,\n        bytes32 categoryId,\n        string contentUri\n    );\n\n    event ContentAdded(bytes32 indexed contentId, string contentUri);\n\n    event Voted(\n        bytes32 indexed postId,\n        address indexed postOwner,\n        address indexed voter,\n        uint80 reputationPostOwner,\n        uint80 reputationVoter,\n        int40 postVotes,\n        bool up,\n        uint8 reputationAmount\n    );\n\n    event CategoryCreated(bytes32 indexed categoryId, string categoryName);\n\n    struct Post {\n        address postOwner;\n        bytes32 contentId;\n        bytes32 parentPostId;\n        bytes32 categoryId;\n        int40 votes;\n    }\n\n    mapping(bytes32 => Post) public postRegistry;\n    mapping(bytes32 => string) public categoryRegistry;\n    mapping(bytes32 => string) public contentRegistry; // array de urls a guardar en IPFS\n    mapping(address => mapping(bytes32 => uint80)) public reputationRegistry; // cada address tiene una reputacion (uint80) en cada categora (bytes32)\n    mapping(address => mapping(bytes32 => bool)) public voteRegistry; // cada address tiene un registro de cada postId al que vot\n\n    function createPost(\n        bytes32 _categoryId,\n        bytes32 _parentPostId,\n        string calldata _contentUri\n    ) external {\n        address _postOwner = msg.sender;\n        bytes32 _contentId = keccak256(abi.encode(_contentUri));\n        bytes32 _postId = keccak256(abi.encodePacked(_postOwner, _parentPostId, _contentId));\n        contentRegistry[_contentId] = _contentUri;\n        postRegistry[_postId].postOwner = _postOwner;\n        postRegistry[_postId].contentId = _contentId;\n        postRegistry[_postId].parentPostId = _parentPostId;\n        postRegistry[_postId].categoryId = _categoryId;\n        emit ContentAdded(_contentId, _contentUri);\n        emit PostCreated(_postId, _postOwner, _contentId, _parentPostId, _categoryId, _contentUri);\n    }\n\n    function validateReputationChange(\n        address _sender,\n        bytes32 _categoryId,\n        uint8 _reputationChange\n    ) internal view returns (bool _result) {\n        uint80 _reputation = reputationRegistry[_sender][_categoryId];\n\n        if (_reputation < 2) {\n            _reputationChange == 1 ? _result = true : _result = false;\n        } else {\n            2**_reputationChange <= _reputation ? _result = true : _result = false;\n        }\n    }\n\n    function vote(\n        bytes32 _postId,\n        uint8 _reputationChange,\n        bool _up\n    ) external {\n        address _voter = msg.sender;\n        bytes32 _categoryId = postRegistry[_postId].categoryId;\n        address _contributor = postRegistry[_postId].postOwner;\n        require(_voter != _contributor, 'you cannot vote your own posts');\n        require(voteRegistry[_voter][_postId] == false, 'you have already voted this post');\n        require(\n            validateReputationChange(_voter, _categoryId, _reputationChange),\n            \"you don't have enough reputation to vote this post\"\n        );\n\n        if (_up) {\n            postRegistry[_postId].votes += 1;\n            reputationRegistry[_contributor][_categoryId] += _reputationChange;\n        } else {\n            if (postRegistry[_postId].votes > 0) {\n                postRegistry[_postId].votes -= 1;\n            }\n\n            if (reputationRegistry[_contributor][_categoryId] >= _reputationChange) {\n                reputationRegistry[_contributor][_categoryId] -= _reputationChange;\n            }\n        }\n\n        voteRegistry[_voter][_postId] = true;\n        emit Voted(\n            _postId,\n            _contributor,\n            _voter,\n            reputationRegistry[_contributor][_categoryId],\n            reputationRegistry[_voter][_categoryId],\n            postRegistry[_postId].votes,\n            _up,\n            _reputationChange\n        );\n    }\n\n    function addCategory(string calldata _categoryName) external {\n        bytes32 _categoryId = keccak256(abi.encode(_categoryName));\n        categoryRegistry[_categoryId] = _categoryName;\n        emit CategoryCreated(_categoryId, _categoryName);\n    }\n\n    function getContent(bytes32 _contentId) public view returns (string memory) {\n        return contentRegistry[_contentId];\n    }\n\n    function getCategory(bytes32 _categoryId) public view returns (string memory) {\n        return categoryRegistry[_categoryId];\n    }\n\n    function getReputation(address _address, bytes32 _categoryID) public view returns (uint80) {\n        return reputationRegistry[_address][_categoryID];\n    }\n\n    function getPost(bytes32 _postId)\n        public\n        view\n        returns (\n            address,\n            bytes32,\n            bytes32,\n            bytes32,\n            int72\n        )\n    {\n        return (\n            postRegistry[_postId].postOwner,\n            postRegistry[_postId].contentId,\n            postRegistry[_postId].parentPostId,\n            postRegistry[_postId].categoryId,\n            postRegistry[_postId].votes\n        );\n    }\n}\n",
  "sourcePath": "/Users/Joa/Desktop/Dapps/Resode/truffle/contracts/Resode.sol",
  "compiler": {
    "name": "solc",
    "version": "0.8.6+commit.11564f7e.Emscripten.clang"
  },
  "schemaVersion": "3.4.3",
  "updatedAt": "2021-12-05T05:55:00.757Z",
  "networkType": "ethereum",
  "devdoc": {
    "kind": "dev",
    "methods": {},
    "version": 1
  },
  "userdoc": {
    "kind": "user",
    "methods": {},
    "version": 1
  }
}