{
  "contractName": "Resode",
  "abi": [
    {
      "inputs": [],
      "stateMutability": "nonpayable",
      "type": "constructor"
    },
    {
      "anonymous": false,
      "inputs": [
        {
          "indexed": true,
          "internalType": "bytes32",
          "name": "categoryId",
          "type": "bytes32"
        },
        {
          "indexed": false,
          "internalType": "string",
          "name": "categoryName",
          "type": "string"
        }
      ],
      "name": "CategoryCreated",
      "type": "event"
    },
    {
      "anonymous": false,
      "inputs": [
        {
          "indexed": true,
          "internalType": "bytes32",
          "name": "contentId",
          "type": "bytes32"
        },
        {
          "indexed": false,
          "internalType": "string",
          "name": "contentUri",
          "type": "string"
        }
      ],
      "name": "ContentAdded",
      "type": "event"
    },
    {
      "anonymous": false,
      "inputs": [
        {
          "indexed": false,
          "internalType": "bytes32",
          "name": "postId",
          "type": "bytes32"
        },
        {
          "indexed": true,
          "internalType": "address",
          "name": "postOwner",
          "type": "address"
        },
        {
          "indexed": false,
          "internalType": "bytes32",
          "name": "contentId",
          "type": "bytes32"
        },
        {
          "indexed": true,
          "internalType": "bytes32",
          "name": "parentPostId",
          "type": "bytes32"
        },
        {
          "indexed": true,
          "internalType": "bytes32",
          "name": "categoryId",
          "type": "bytes32"
        },
        {
          "indexed": false,
          "internalType": "string",
          "name": "contentUri",
          "type": "string"
        }
      ],
      "name": "PostCreated",
      "type": "event"
    },
    {
      "anonymous": false,
      "inputs": [
        {
          "indexed": true,
          "internalType": "bytes32",
          "name": "postId",
          "type": "bytes32"
        },
        {
          "indexed": true,
          "internalType": "address",
          "name": "postOwner",
          "type": "address"
        },
        {
          "indexed": true,
          "internalType": "address",
          "name": "voter",
          "type": "address"
        },
        {
          "indexed": false,
          "internalType": "uint80",
          "name": "reputationPostOwner",
          "type": "uint80"
        },
        {
          "indexed": false,
          "internalType": "uint80",
          "name": "reputationVoter",
          "type": "uint80"
        },
        {
          "indexed": false,
          "internalType": "int40",
          "name": "postVotes",
          "type": "int40"
        },
        {
          "indexed": false,
          "internalType": "bool",
          "name": "up",
          "type": "bool"
        },
        {
          "indexed": false,
          "internalType": "uint8",
          "name": "reputationAmount",
          "type": "uint8"
        }
      ],
      "name": "Voted",
      "type": "event"
    },
    {
      "inputs": [
        {
          "internalType": "bytes32",
          "name": "",
          "type": "bytes32"
        }
      ],
      "name": "categoryRegistry",
      "outputs": [
        {
          "internalType": "string",
          "name": "",
          "type": "string"
        }
      ],
      "stateMutability": "view",
      "type": "function",
      "constant": true
    },
    {
      "inputs": [
        {
          "internalType": "bytes32",
          "name": "",
          "type": "bytes32"
        }
      ],
      "name": "contentRegistry",
      "outputs": [
        {
          "internalType": "string",
          "name": "",
          "type": "string"
        }
      ],
      "stateMutability": "view",
      "type": "function",
      "constant": true
    },
    {
      "inputs": [
        {
          "internalType": "bytes32",
          "name": "",
          "type": "bytes32"
        }
      ],
      "name": "postRegistry",
      "outputs": [
        {
          "internalType": "address",
          "name": "postOwner",
          "type": "address"
        },
        {
          "internalType": "bytes32",
          "name": "contentId",
          "type": "bytes32"
        },
        {
          "internalType": "bytes32",
          "name": "parentPostId",
          "type": "bytes32"
        },
        {
          "internalType": "bytes32",
          "name": "categoryId",
          "type": "bytes32"
        },
        {
          "internalType": "int40",
          "name": "votes",
          "type": "int40"
        }
      ],
      "stateMutability": "view",
      "type": "function",
      "constant": true
    },
    {
      "inputs": [
        {
          "internalType": "address",
          "name": "",
          "type": "address"
        },
        {
          "internalType": "bytes32",
          "name": "",
          "type": "bytes32"
        }
      ],
      "name": "reputationRegistry",
      "outputs": [
        {
          "internalType": "uint80",
          "name": "",
          "type": "uint80"
        }
      ],
      "stateMutability": "view",
      "type": "function",
      "constant": true
    },
    {
      "inputs": [
        {
          "internalType": "address",
          "name": "",
          "type": "address"
        },
        {
          "internalType": "bytes32",
          "name": "",
          "type": "bytes32"
        }
      ],
      "name": "voteRegistry",
      "outputs": [
        {
          "internalType": "bool",
          "name": "",
          "type": "bool"
        }
      ],
      "stateMutability": "view",
      "type": "function",
      "constant": true
    },
    {
      "inputs": [
        {
          "internalType": "bytes32",
          "name": "_categoryId",
          "type": "bytes32"
        },
        {
          "internalType": "bytes32",
          "name": "_parentPostId",
          "type": "bytes32"
        },
        {
          "internalType": "string",
          "name": "_contentUri",
          "type": "string"
        }
      ],
      "name": "createPost",
      "outputs": [],
      "stateMutability": "nonpayable",
      "type": "function"
    },
    {
      "inputs": [
        {
          "internalType": "bytes32",
          "name": "_postId",
          "type": "bytes32"
        },
        {
          "internalType": "uint8",
          "name": "_reputationChange",
          "type": "uint8"
        },
        {
          "internalType": "bool",
          "name": "_up",
          "type": "bool"
        }
      ],
      "name": "vote",
      "outputs": [],
      "stateMutability": "nonpayable",
      "type": "function"
    },
    {
      "inputs": [
        {
          "internalType": "string",
          "name": "_categoryName",
          "type": "string"
        }
      ],
      "name": "addCategory",
      "outputs": [],
      "stateMutability": "nonpayable",
      "type": "function"
    },
    {
      "inputs": [
        {
          "internalType": "bytes32",
          "name": "_contentId",
          "type": "bytes32"
        }
      ],
      "name": "getContent",
      "outputs": [
        {
          "internalType": "string",
          "name": "",
          "type": "string"
        }
      ],
      "stateMutability": "view",
      "type": "function",
      "constant": true
    },
    {
      "inputs": [
        {
          "internalType": "bytes32",
          "name": "_categoryId",
          "type": "bytes32"
        }
      ],
      "name": "getCategory",
      "outputs": [
        {
          "internalType": "string",
          "name": "",
          "type": "string"
        }
      ],
      "stateMutability": "view",
      "type": "function",
      "constant": true
    },
    {
      "inputs": [
        {
          "internalType": "address",
          "name": "_address",
          "type": "address"
        },
        {
          "internalType": "bytes32",
          "name": "_categoryID",
          "type": "bytes32"
        }
      ],
      "name": "getReputation",
      "outputs": [
        {
          "internalType": "uint80",
          "name": "",
          "type": "uint80"
        }
      ],
      "stateMutability": "view",
      "type": "function",
      "constant": true
    },
    {
      "inputs": [
        {
          "internalType": "bytes32",
          "name": "_postId",
          "type": "bytes32"
        }
      ],
      "name": "getPost",
      "outputs": [
        {
          "internalType": "address",
          "name": "",
          "type": "address"
        },
        {
          "internalType": "bytes32",
          "name": "",
          "type": "bytes32"
        },
        {
          "internalType": "bytes32",
          "name": "",
          "type": "bytes32"
        },
        {
          "internalType": "bytes32",
          "name": "",
          "type": "bytes32"
        },
        {
          "internalType": "int72",
          "name": "",
          "type": "int72"
        }
      ],
      "stateMutability": "view",
      "type": "function",
      "constant": true
    }
  ],
  "bytecode": "0x60806040523480156200001157600080fd5b50620000586040518060400160405280600381526020017f416c6c0000000000000000000000000000000000000000000000000000000000815250620001bc60201b60201c565b6200009e6040518060400160405280600481526020017f4465466900000000000000000000000000000000000000000000000000000000815250620001bc60201b60201c565b620000e46040518060400160405280600481526020017f5765623300000000000000000000000000000000000000000000000000000000815250620001bc60201b60201c565b6200012a6040518060400160405280600781526020017f426974636f696e00000000000000000000000000000000000000000000000000815250620001bc60201b60201c565b620001706040518060400160405280600881526020017f457468657265756d000000000000000000000000000000000000000000000000815250620001bc60201b60201c565b620001b66040518060400160405280600681526020017f536f6c616e610000000000000000000000000000000000000000000000000000815250620001bc60201b60201c565b6200042e565b600081604051602001620001d1919062000342565b604051602081830303815290604052805190602001209050816001600083815260200190815260200160002090805190602001906200021292919062000251565b50807f42588c2617ffb1b380decf15f2134bd59bb002295bda52fe6e5bf92fc504d2498360405162000245919062000342565b60405180910390a25050565b8280546200025f90620003b8565b90600052602060002090601f016020900481019282620002835760008555620002cf565b82601f106200029e57805160ff1916838001178555620002cf565b82800160010185558215620002cf579182015b82811115620002ce578251825591602001919060010190620002b1565b5b509050620002de9190620002e2565b5090565b5b80821115620002fd576000816000905550600101620002e3565b5090565b60006200030e8262000366565b6200031a818562000371565b93506200032c81856020860162000382565b62000337816200041d565b840191505092915050565b600060208201905081810360008301526200035e818462000301565b905092915050565b600081519050919050565b600082825260208201905092915050565b60005b83811015620003a257808201518184015260208101905062000385565b83811115620003b2576000848401525b50505050565b60006002820490506001821680620003d157607f821691505b60208210811415620003e857620003e7620003ee565b5b50919050565b7f4e487b7100000000000000000000000000000000000000000000000000000000600052602260045260246000fd5b6000601f19601f8301169050919050565b611ec5806200043e6000396000f3fe608060405234801561001057600080fd5b50600436106100b45760003560e01c806358856c951161007157806358856c95146101b15780635cc15001146101e557806393e43bbe14610215578063b2fae27214610249578063bd3fb85c14610279578063d9cfa7de146102a9576100b4565b80630cbc7007146100b95780631dcb11ec146100e957806321ca87fc1461010557806324905190146101355780632e0dcbf714610165578063473b084c14610181575b600080fd5b6100d360048036038101906100ce919061131c565b6102c5565b6040516100e09190611721565b60405180910390f35b61010360048036038101906100fe9190611349565b610365565b005b61011f600480360381019061011a91906112dc565b610524565b60405161012c91906116a2565b60405180910390f35b61014f600480360381019061014a91906112dc565b610553565b60405161015c91906117a3565b60405180910390f35b61017f600480360381019061017a9190611410565b61058b565b005b61019b6004803603810190610196919061131c565b61061a565b6040516101a89190611721565b60405180910390f35b6101cb60048036038101906101c6919061131c565b6106bf565b6040516101dc9594939291906115fc565b60405180910390f35b6101ff60048036038101906101fa919061131c565b610722565b60405161020c9190611721565b60405180910390f35b61022f600480360381019061022a919061131c565b6107c7565b60405161024095949392919061164f565b60405180910390f35b610263600480360381019061025e91906112dc565b610883565b60405161027091906117a3565b60405180910390f35b610293600480360381019061028e919061131c565b6108f4565b6040516102a09190611721565b60405180910390f35b6102c360048036038101906102be91906113bd565b610994565b005b600260205280600052604060002060009150905080546102e490611c2b565b80601f016020809104026020016040519081016040528092919081815260200182805461031090611c2b565b801561035d5780601f106103325761010080835404028352916020019161035d565b820191906000526020600020905b81548152906001019060200180831161034057829003601f168201915b505050505081565b60003390506000838360405160200161037f9291906116fd565b60405160208183030381529060405280519060200120905060008286836040516020016103ae939291906115bf565b60405160208183030381529060405280519060200120905084846002600085815260200190815260200160002091906103e8929190611099565b508260008083815260200190815260200160002060000160006101000a81548173ffffffffffffffffffffffffffffffffffffffff021916908373ffffffffffffffffffffffffffffffffffffffff160217905550816000808381526020019081526020016000206001018190555085600080838152602001908152602001600020600201819055508660008083815260200190815260200160002060030181905550817ffb281bb05c5ef4b3a5f374fffc0b351fe69873776a9d6c289682e1929cb4f08086866040516104bd9291906116fd565b60405180910390a286868473ffffffffffffffffffffffffffffffffffffffff167f9204ee15ea32319b16e4452d5008ab4090873b8255405aa89764af44609a7aef84868a8a60405161051394939291906116bd565b60405180910390a450505050505050565b60046020528160005260406000206020528060005260406000206000915091509054906101000a900460ff1681565b60036020528160005260406000206020528060005260406000206000915091509054906101000a900469ffffffffffffffffffff1681565b60008160405160200161059e9190611721565b604051602081830303815290604052805190602001209050816001600083815260200190815260200160002090805190602001906105dd92919061111f565b50807f42588c2617ffb1b380decf15f2134bd59bb002295bda52fe6e5bf92fc504d2498360405161060e9190611721565b60405180910390a25050565b606060016000838152602001908152602001600020805461063a90611c2b565b80601f016020809104026020016040519081016040528092919081815260200182805461066690611c2b565b80156106b35780601f10610688576101008083540402835291602001916106b3565b820191906000526020600020905b81548152906001019060200180831161069657829003601f168201915b50505050509050919050565b60006020528060005260406000206000915090508060000160009054906101000a900473ffffffffffffffffffffffffffffffffffffffff16908060010154908060020154908060030154908060040160009054906101000a900460040b905085565b606060026000838152602001908152602001600020805461074290611c2b565b80601f016020809104026020016040519081016040528092919081815260200182805461076e90611c2b565b80156107bb5780601f10610790576101008083540402835291602001916107bb565b820191906000526020600020905b81548152906001019060200180831161079e57829003601f168201915b50505050509050919050565b600080600080600080600087815260200190815260200160002060000160009054906101000a900473ffffffffffffffffffffffffffffffffffffffff1660008088815260200190815260200160002060010154600080898152602001908152602001600020600201546000808a8152602001908152602001600020600301546000808b815260200190815260200160002060040160009054906101000a900460040b8060040b90509450945094509450945091939590929450565b6000600360008473ffffffffffffffffffffffffffffffffffffffff1673ffffffffffffffffffffffffffffffffffffffff168152602001908152602001600020600083815260200190815260200160002060009054906101000a900469ffffffffffffffffffff16905092915050565b6001602052806000526040600020600091509050805461091390611c2b565b80601f016020809104026020016040519081016040528092919081815260200182805461093f90611c2b565b801561098c5780601f106109615761010080835404028352916020019161098c565b820191906000526020600020905b81548152906001019060200180831161096f57829003601f168201915b505050505081565b60003390506000806000868152602001908152602001600020600301549050600080600087815260200190815260200160002060000160009054906101000a900473ffffffffffffffffffffffffffffffffffffffff1690508073ffffffffffffffffffffffffffffffffffffffff168373ffffffffffffffffffffffffffffffffffffffff161415610a5c576040517f08c379a0000000000000000000000000000000000000000000000000000000008152600401610a5390611783565b60405180910390fd5b60001515600460008573ffffffffffffffffffffffffffffffffffffffff1673ffffffffffffffffffffffffffffffffffffffff168152602001908152602001600020600088815260200190815260200160002060009054906101000a900460ff16151514610b00576040517f08c379a0000000000000000000000000000000000000000000000000000000008152600401610af790611743565b60405180910390fd5b610b0b838387610fbd565b610b4a576040517f08c379a0000000000000000000000000000000000000000000000000000000008152600401610b4190611763565b60405180910390fd5b8315610c4c57600160008088815260200190815260200160002060040160008282829054906101000a900460040b610b829190611883565b92506101000a81548164ffffffffff021916908360040b64ffffffffff1602179055508460ff16600360008373ffffffffffffffffffffffffffffffffffffffff1673ffffffffffffffffffffffffffffffffffffffff168152602001908152602001600020600084815260200190815260200160002060008282829054906101000a900469ffffffffffffffffffff16610c1d91906118fc565b92506101000a81548169ffffffffffffffffffff021916908369ffffffffffffffffffff160217905550610df0565b600080600088815260200190815260200160002060040160009054906101000a900460040b60040b1315610cd057600160008088815260200190815260200160002060040160008282829054906101000a900460040b610cac9190611aad565b92506101000a81548164ffffffffff021916908360040b64ffffffffff1602179055505b8460ff16600360008373ffffffffffffffffffffffffffffffffffffffff1673ffffffffffffffffffffffffffffffffffffffff168152602001908152602001600020600084815260200190815260200160002060009054906101000a900469ffffffffffffffffffff1669ffffffffffffffffffff1610610def578460ff16600360008373ffffffffffffffffffffffffffffffffffffffff1673ffffffffffffffffffffffffffffffffffffffff168152602001908152602001600020600084815260200190815260200160002060008282829054906101000a900469ffffffffffffffffffff16610dc49190611b26565b92506101000a81548169ffffffffffffffffffff021916908369ffffffffffffffffffff1602179055505b5b6001600460008573ffffffffffffffffffffffffffffffffffffffff1673ffffffffffffffffffffffffffffffffffffffff168152602001908152602001600020600088815260200190815260200160002060006101000a81548160ff0219169083151502179055508273ffffffffffffffffffffffffffffffffffffffff168173ffffffffffffffffffffffffffffffffffffffff16877f01d21e353645a36d22513edbfe86f2d524130c25320a11ed375056ea54b427af600360008673ffffffffffffffffffffffffffffffffffffffff1673ffffffffffffffffffffffffffffffffffffffff168152602001908152602001600020600087815260200190815260200160002060009054906101000a900469ffffffffffffffffffff16600360008973ffffffffffffffffffffffffffffffffffffffff1673ffffffffffffffffffffffffffffffffffffffff168152602001908152602001600020600088815260200190815260200160002060009054906101000a900469ffffffffffffffffffff166000808d815260200190815260200160002060040160009054906101000a900460040b8a8c604051610fad9594939291906117be565b60405180910390a4505050505050565b600080600360008673ffffffffffffffffffffffffffffffffffffffff1673ffffffffffffffffffffffffffffffffffffffff168152602001908152602001600020600085815260200190815260200160002060009054906101000a900469ffffffffffffffffffff16905060028169ffffffffffffffffffff16101561105f5760018360ff1614611053576000915081611059565b60019150815b50611091565b8069ffffffffffffffffffff16836002611079919061198f565b111561108957600091508161108f565b60019150815b505b509392505050565b8280546110a590611c2b565b90600052602060002090601f0160209004810192826110c7576000855561110e565b82601f106110e057803560ff191683800117855561110e565b8280016001018555821561110e579182015b8281111561110d5782358255916020019190600101906110f2565b5b50905061111b91906111a5565b5090565b82805461112b90611c2b565b90600052602060002090601f01602090048101928261114d5760008555611194565b82601f1061116657805160ff1916838001178555611194565b82800160010185558215611194579182015b82811115611193578251825591602001919060010190611178565b5b5090506111a191906111a5565b5090565b5b808211156111be5760008160009055506001016111a6565b5090565b60006111d56111d084611836565b611811565b9050828152602081018484840111156111f1576111f0611d58565b5b6111fc848285611be9565b509392505050565b60008135905061121381611e33565b92915050565b60008135905061122881611e4a565b92915050565b60008135905061123d81611e61565b92915050565b60008083601f84011261125957611258611d4e565b5b8235905067ffffffffffffffff81111561127657611275611d49565b5b60208301915083600182028301111561129257611291611d53565b5b9250929050565b600082601f8301126112ae576112ad611d4e565b5b81356112be8482602086016111c2565b91505092915050565b6000813590506112d681611e78565b92915050565b600080604083850312156112f3576112f2611d62565b5b600061130185828601611204565b92505060206113128582860161122e565b9150509250929050565b60006020828403121561133257611331611d62565b5b60006113408482850161122e565b91505092915050565b6000806000806060858703121561136357611362611d62565b5b60006113718782880161122e565b94505060206113828782880161122e565b935050604085013567ffffffffffffffff8111156113a3576113a2611d5d565b5b6113af87828801611243565b925092505092959194509250565b6000806000606084860312156113d6576113d5611d62565b5b60006113e48682870161122e565b93505060206113f5868287016112c7565b925050604061140686828701611219565b9150509250925092565b60006020828403121561142657611425611d62565b5b600082013567ffffffffffffffff81111561144457611443611d5d565b5b61145084828501611299565b91505092915050565b61146281611b5a565b82525050565b61147961147482611b5a565b611c8e565b82525050565b61148881611b6c565b82525050565b61149781611b78565b82525050565b6114ae6114a982611b78565b611ca0565b82525050565b6114bd81611b82565b82525050565b6114cc81611b8f565b82525050565b60006114de8385611872565b93506114eb838584611be9565b6114f483611d67565b840190509392505050565b600061150a82611867565b6115148185611872565b9350611524818560208601611bf8565b61152d81611d67565b840191505092915050565b6000611545602083611872565b915061155082611d92565b602082019050919050565b6000611568603283611872565b915061157382611dbb565b604082019050919050565b600061158b601e83611872565b915061159682611e0a565b602082019050919050565b6115aa81611bd3565b82525050565b6115b981611bc6565b82525050565b60006115cb8286611468565b6014820191506115db828561149d565b6020820191506115eb828461149d565b602082019150819050949350505050565b600060a0820190506116116000830188611459565b61161e602083018761148e565b61162b604083018661148e565b611638606083018561148e565b61164560808301846114b4565b9695505050505050565b600060a0820190506116646000830188611459565b611671602083018761148e565b61167e604083018661148e565b61168b606083018561148e565b61169860808301846114c3565b9695505050505050565b60006020820190506116b7600083018461147f565b92915050565b60006060820190506116d2600083018761148e565b6116df602083018661148e565b81810360408301526116f28184866114d2565b905095945050505050565b600060208201905081810360008301526117188184866114d2565b90509392505050565b6000602082019050818103600083015261173b81846114ff565b905092915050565b6000602082019050818103600083015261175c81611538565b9050919050565b6000602082019050818103600083015261177c8161155b565b9050919050565b6000602082019050818103600083015261179c8161157e565b9050919050565b60006020820190506117b860008301846115a1565b92915050565b600060a0820190506117d360008301886115a1565b6117e060208301876115a1565b6117ed60408301866114b4565b6117fa606083018561147f565b61180760808301846115b0565b9695505050505050565b600061181b61182c565b90506118278282611c5d565b919050565b6000604051905090565b600067ffffffffffffffff82111561185157611850611d1a565b5b61185a82611d67565b9050602081019050919050565b600081519050919050565b600082825260208201905092915050565b600061188e82611b82565b915061189983611b82565b925081647fffffffff038313600083121516156118b9576118b8611cbc565b5b817fffffffffffffffffffffffffffffffffffffffffffffffffffffff80000000000383126000831216156118f1576118f0611cbc565b5b828201905092915050565b600061190782611bd3565b915061191283611bd3565b92508269ffffffffffffffffffff0382111561193157611930611cbc565b5b828201905092915050565b6000808291508390505b60018511156119865780860481111561196257611961611cbc565b5b60018516156119715780820291505b808102905061197f85611d85565b9450611946565b94509492505050565b600061199a82611bbc565b91506119a583611bc6565b92506119d27fffffffffffffffffffffffffffffffffffffffffffffffffffffffffffffffff84846119da565b905092915050565b6000826119ea5760019050611aa6565b816119f85760009050611aa6565b8160018114611a0e5760028114611a1857611a47565b6001915050611aa6565b60ff841115611a2a57611a29611cbc565b5b8360020a915084821115611a4157611a40611cbc565b5b50611aa6565b5060208310610133831016604e8410600b8410161715611a7c5782820a905083811115611a7757611a76611cbc565b5b611aa6565b611a89848484600161193c565b92509050818404811115611aa057611a9f611cbc565b5b81810290505b9392505050565b6000611ab882611b82565b9150611ac383611b82565b9250827fffffffffffffffffffffffffffffffffffffffffffffffffffffff800000000001821260008412151615611afe57611afd611cbc565b5b82647fffffffff018213600084121615611b1b57611b1a611cbc565b5b828203905092915050565b6000611b3182611bd3565b9150611b3c83611bd3565b925082821015611b4f57611b4e611cbc565b5b828203905092915050565b6000611b6582611b9c565b9050919050565b60008115159050919050565b6000819050919050565b60008160040b9050919050565b60008160080b9050919050565b600073ffffffffffffffffffffffffffffffffffffffff82169050919050565b6000819050919050565b600060ff82169050919050565b600069ffffffffffffffffffff82169050919050565b82818337600083830152505050565b60005b83811015611c16578082015181840152602081019050611bfb565b83811115611c25576000848401525b50505050565b60006002820490506001821680611c4357607f821691505b60208210811415611c5757611c56611ceb565b5b50919050565b611c6682611d67565b810181811067ffffffffffffffff82111715611c8557611c84611d1a565b5b80604052505050565b6000611c9982611caa565b9050919050565b6000819050919050565b6000611cb582611d78565b9050919050565b7f4e487b7100000000000000000000000000000000000000000000000000000000600052601160045260246000fd5b7f4e487b7100000000000000000000000000000000000000000000000000000000600052602260045260246000fd5b7f4e487b7100000000000000000000000000000000000000000000000000000000600052604160045260246000fd5b600080fd5b600080fd5b600080fd5b600080fd5b600080fd5b600080fd5b6000601f19601f8301169050919050565b60008160601b9050919050565b60008160011c9050919050565b7f796f75206861766520616c726561647920766f746564207468697320706f7374600082015250565b7f796f7520646f6e2774206861766520656e6f7567682072657075746174696f6e60008201527f20746f20766f7465207468697320706f73740000000000000000000000000000602082015250565b7f796f752063616e6e6f7420766f746520796f7572206f776e20706f7374730000600082015250565b611e3c81611b5a565b8114611e4757600080fd5b50565b611e5381611b6c565b8114611e5e57600080fd5b50565b611e6a81611b78565b8114611e7557600080fd5b50565b611e8181611bc6565b8114611e8c57600080fd5b5056fea26469706673582212208a1ebb101d54c30f94581ca1a4ed1db91f28d8e7d04f7b57592e86cd1f11320a64736f6c63430008060033",
  "immutableReferences": {},
  "source": "// SPDX-License-Identifier: MIT\npragma solidity >=0.4.22 <0.9.0;\n\ncontract Resode {\n\n\n    constructor() {\n        addCategory('All');\n        addCategory('DeFi');\n        addCategory('Web3');\n        addCategory('Bitcoin');\n        addCategory('Ethereum');\n        addCategory('Solana');\n\n    }\n\n    event PostCreated(\n        bytes32 postId,\n        address indexed postOwner,\n        bytes32 contentId,\n        bytes32 indexed parentPostId,\n        bytes32 indexed categoryId,\n        string contentUri\n    );\n\n    event ContentAdded(bytes32 indexed contentId, string contentUri);\n\n    event Voted(\n        bytes32 indexed postId,\n        address indexed postOwner,\n        address indexed voter,\n        uint80 reputationPostOwner,\n        uint80 reputationVoter,\n        int40 postVotes,\n        bool up,\n        uint8 reputationAmount\n    );\n\n    event CategoryCreated(bytes32 indexed categoryId, string categoryName);\n\n    struct Post {\n        address postOwner;\n        bytes32 contentId;\n        bytes32 parentPostId;\n        bytes32 categoryId;\n        int40 votes;\n    }\n\n    mapping(bytes32 => Post) public postRegistry;\n    mapping(bytes32 => string) public categoryRegistry;\n    mapping(bytes32 => string) public contentRegistry; // array de urls a guardar en IPFS\n    mapping(address => mapping(bytes32 => uint80)) public reputationRegistry; // cada address tiene una reputacion (uint80) en cada categora (bytes32)\n    mapping(address => mapping(bytes32 => bool)) public voteRegistry; // cada address tiene un registro de cada postId al que vot\n\n    function createPost(\n        bytes32 _categoryId,\n        bytes32 _parentPostId,\n        string calldata _contentUri\n    ) external {\n        address _postOwner = msg.sender;\n        bytes32 _contentId = keccak256(abi.encode(_contentUri));\n        bytes32 _postId = keccak256(abi.encodePacked(_postOwner, _parentPostId, _contentId));\n        contentRegistry[_contentId] = _contentUri;\n        postRegistry[_postId].postOwner = _postOwner;\n        postRegistry[_postId].contentId = _contentId;\n        postRegistry[_postId].parentPostId = _parentPostId;\n        postRegistry[_postId].categoryId = _categoryId;\n        emit ContentAdded(_contentId, _contentUri);\n        emit PostCreated(_postId, _postOwner, _contentId, _parentPostId, _categoryId, _contentUri);\n    }\n\n    function validateReputationChange(\n        address _sender,\n        bytes32 _categoryId,\n        uint8 _reputationChange\n    ) internal view returns (bool _result) {\n        uint80 _reputation = reputationRegistry[_sender][_categoryId];\n\n        if (_reputation < 2) {\n            _reputationChange == 1 ? _result = true : _result = false;\n        } else {\n            2**_reputationChange <= _reputation ? _result = true : _result = false;\n        }\n    }\n\n    function vote(\n        bytes32 _postId,\n        uint8 _reputationChange,\n        bool _up\n    ) external {\n        address _voter = msg.sender;\n        bytes32 _categoryId = postRegistry[_postId].categoryId;\n        address _contributor = postRegistry[_postId].postOwner;\n        require(_voter != _contributor, 'you cannot vote your own posts');\n        require(voteRegistry[_voter][_postId] == false, 'you have already voted this post');\n        require(\n            validateReputationChange(_voter, _categoryId, _reputationChange),\n            \"you don't have enough reputation to vote this post\"\n        );\n\n        if (_up) {\n            postRegistry[_postId].votes += 1;\n            reputationRegistry[_contributor][_categoryId] += _reputationChange;\n        } else {\n            if (postRegistry[_postId].votes > 0) {\n                postRegistry[_postId].votes -= 1;\n            }\n\n            if (reputationRegistry[_contributor][_categoryId] >= _reputationChange) {\n                reputationRegistry[_contributor][_categoryId] -= _reputationChange;\n            }\n        }\n\n        voteRegistry[_voter][_postId] = true;\n        emit Voted(\n            _postId,\n            _contributor,\n            _voter,\n            reputationRegistry[_contributor][_categoryId],\n            reputationRegistry[_voter][_categoryId],\n            postRegistry[_postId].votes,\n            _up,\n            _reputationChange\n        );\n    }\n\n    function addCategory(string memory _categoryName) public {\n        bytes32 _categoryId = keccak256(abi.encode(_categoryName));\n        categoryRegistry[_categoryId] = _categoryName;\n        emit CategoryCreated(_categoryId, _categoryName);\n    }\n\n    function getContent(bytes32 _contentId) public view returns (string memory) {\n        return contentRegistry[_contentId];\n    }\n\n    function getCategory(bytes32 _categoryId) public view returns (string memory) {\n        return categoryRegistry[_categoryId];\n    }\n\n    function getReputation(address _address, bytes32 _categoryID) public view returns (uint80) {\n        return reputationRegistry[_address][_categoryID];\n    }\n\n    function getPost(bytes32 _postId)\n        public\n        view\n        returns (\n            address,\n            bytes32,\n            bytes32,\n            bytes32,\n            int72\n        )\n    {\n        return (\n            postRegistry[_postId].postOwner,\n            postRegistry[_postId].contentId,\n            postRegistry[_postId].parentPostId,\n            postRegistry[_postId].categoryId,\n            postRegistry[_postId].votes\n        );\n    }\n}\n",
  "sourcePath": "/Users/Joa/Desktop/Dapps/Resode/truffle/contracts/Resode.sol",
  "compiler": {
    "name": "solc",
    "version": "0.8.6+commit.11564f7e.Emscripten.clang"
  },
  "schemaVersion": "3.4.3",
  "updatedAt": "2022-03-14T03:35:31.733Z",
  "networkType": "ethereum",
  "devdoc": {
    "kind": "dev",
    "methods": {},
    "version": 1
  },
  "userdoc": {
    "kind": "user",
    "methods": {},
    "version": 1
  }
}