{
  "contractName": "ResodeToken",
  "abi": [
    {
      "inputs": [],
      "stateMutability": "nonpayable",
      "type": "constructor"
    },
    {
      "anonymous": false,
      "inputs": [
        {
          "indexed": true,
          "internalType": "address",
          "name": "_owner",
          "type": "address"
        },
        {
          "indexed": true,
          "internalType": "address",
          "name": "_spender",
          "type": "address"
        },
        {
          "indexed": false,
          "internalType": "uint256",
          "name": "_value",
          "type": "uint256"
        }
      ],
      "name": "Approval",
      "type": "event"
    },
    {
      "anonymous": false,
      "inputs": [
        {
          "indexed": true,
          "internalType": "address",
          "name": "_from",
          "type": "address"
        },
        {
          "indexed": true,
          "internalType": "address",
          "name": "_to",
          "type": "address"
        },
        {
          "indexed": false,
          "internalType": "uint256",
          "name": "_value",
          "type": "uint256"
        }
      ],
      "name": "Transfer",
      "type": "event"
    },
    {
      "inputs": [
        {
          "internalType": "address",
          "name": "",
          "type": "address"
        },
        {
          "internalType": "address",
          "name": "",
          "type": "address"
        }
      ],
      "name": "allowed",
      "outputs": [
        {
          "internalType": "uint256",
          "name": "",
          "type": "uint256"
        }
      ],
      "stateMutability": "view",
      "type": "function",
      "constant": true
    },
    {
      "inputs": [
        {
          "internalType": "address",
          "name": "",
          "type": "address"
        }
      ],
      "name": "balanceOf",
      "outputs": [
        {
          "internalType": "uint256",
          "name": "",
          "type": "uint256"
        }
      ],
      "stateMutability": "view",
      "type": "function",
      "constant": true
    },
    {
      "inputs": [],
      "name": "decimals",
      "outputs": [
        {
          "internalType": "uint8",
          "name": "",
          "type": "uint8"
        }
      ],
      "stateMutability": "view",
      "type": "function",
      "constant": true
    },
    {
      "inputs": [],
      "name": "name",
      "outputs": [
        {
          "internalType": "string",
          "name": "",
          "type": "string"
        }
      ],
      "stateMutability": "view",
      "type": "function",
      "constant": true
    },
    {
      "inputs": [],
      "name": "symbol",
      "outputs": [
        {
          "internalType": "string",
          "name": "",
          "type": "string"
        }
      ],
      "stateMutability": "view",
      "type": "function",
      "constant": true
    },
    {
      "inputs": [],
      "name": "totalSupply",
      "outputs": [
        {
          "internalType": "uint256",
          "name": "",
          "type": "uint256"
        }
      ],
      "stateMutability": "view",
      "type": "function",
      "constant": true
    },
    {
      "inputs": [
        {
          "internalType": "address",
          "name": "_to",
          "type": "address"
        },
        {
          "internalType": "uint256",
          "name": "_value",
          "type": "uint256"
        }
      ],
      "name": "transfer",
      "outputs": [
        {
          "internalType": "bool",
          "name": "success",
          "type": "bool"
        }
      ],
      "stateMutability": "nonpayable",
      "type": "function"
    },
    {
      "inputs": [
        {
          "internalType": "address",
          "name": "_spender",
          "type": "address"
        },
        {
          "internalType": "uint256",
          "name": "_value",
          "type": "uint256"
        }
      ],
      "name": "approve",
      "outputs": [
        {
          "internalType": "bool",
          "name": "success",
          "type": "bool"
        }
      ],
      "stateMutability": "nonpayable",
      "type": "function"
    },
    {
      "inputs": [
        {
          "internalType": "address",
          "name": "_from",
          "type": "address"
        },
        {
          "internalType": "address",
          "name": "_to",
          "type": "address"
        },
        {
          "internalType": "uint256",
          "name": "_value",
          "type": "uint256"
        }
      ],
      "name": "transferFrom",
      "outputs": [
        {
          "internalType": "bool",
          "name": "success",
          "type": "bool"
        }
      ],
      "stateMutability": "nonpayable",
      "type": "function"
    }
  ],
  "bytecode": "0x60806040526040518060400160405280600481526020017f5245534f00000000000000000000000000000000000000000000000000000000815250600090805190602001906200005192919062000199565b506040518060400160405280600c81526020017f5265736f646520546f6b656e0000000000000000000000000000000000000000815250600190805190602001906200009f92919062000199565b506012600260006101000a81548160ff021916908360ff160217905550620f4240600355348015620000d057600080fd5b506040518060400160405280600481526020017f5245534f00000000000000000000000000000000000000000000000000000000815250600090805190602001906200011e92919062000199565b506040518060400160405280600c81526020017f5265736f646520546f6b656e0000000000000000000000000000000000000000815250600190805190602001906200016c92919062000199565b50600a600260006101000a81548160ff021916908360ff160217905550620f4240600381905550620002ae565b828054620001a79062000249565b90600052602060002090601f016020900481019282620001cb576000855562000217565b82601f10620001e657805160ff191683800117855562000217565b8280016001018555821562000217579182015b8281111562000216578251825591602001919060010190620001f9565b5b5090506200022691906200022a565b5090565b5b80821115620002455760008160009055506001016200022b565b5090565b600060028204905060018216806200026257607f821691505b602082108114156200027957620002786200027f565b5b50919050565b7f4e487b7100000000000000000000000000000000000000000000000000000000600052602260045260246000fd5b610e6880620002be6000396000f3fe608060405234801561001057600080fd5b50600436106100935760003560e01c8063313ce56711610066578063313ce567146101345780635c6581651461015257806370a082311461018257806395d89b41146101b2578063a9059cbb146101d057610093565b806306fdde0314610098578063095ea7b3146100b657806318160ddd146100e657806323b872dd14610104575b600080fd5b6100a0610200565b6040516100ad9190610bd8565b60405180910390f35b6100d060048036038101906100cb9190610b17565b61028e565b6040516100dd9190610bbd565b60405180910390f35b6100ee6103cc565b6040516100fb9190610bfa565b60405180910390f35b61011e60048036038101906101199190610ac4565b6103d2565b60405161012b9190610bbd565b60405180910390f35b61013c61073d565b6040516101499190610c15565b60405180910390f35b61016c60048036038101906101679190610a84565b610750565b6040516101799190610bfa565b60405180910390f35b61019c60048036038101906101979190610a57565b610775565b6040516101a99190610bfa565b60405180910390f35b6101ba61078d565b6040516101c79190610bd8565b60405180910390f35b6101ea60048036038101906101e59190610b17565b61081b565b6040516101f79190610bbd565b60405180910390f35b6001805461020d90610d5e565b80601f016020809104026020016040519081016040528092919081815260200182805461023990610d5e565b80156102865780601f1061025b57610100808354040283529160200191610286565b820191906000526020600020905b81548152906001019060200180831161026957829003601f168201915b505050505081565b6000600460003373ffffffffffffffffffffffffffffffffffffffff1673ffffffffffffffffffffffffffffffffffffffff168152602001908152602001600020548211156102dc57600080fd5b81600560003373ffffffffffffffffffffffffffffffffffffffff1673ffffffffffffffffffffffffffffffffffffffff16815260200190815260200160002060008573ffffffffffffffffffffffffffffffffffffffff1673ffffffffffffffffffffffffffffffffffffffff168152602001908152602001600020819055508273ffffffffffffffffffffffffffffffffffffffff163373ffffffffffffffffffffffffffffffffffffffff167f8c5be1e5ebec7d5bd14f71427d1e84f3dd0314c0f7b2291e5b200ac8c7c3b925846040516103ba9190610bfa565b60405180910390a36001905092915050565b60035481565b6000600560008573ffffffffffffffffffffffffffffffffffffffff1673ffffffffffffffffffffffffffffffffffffffff16815260200190815260200160002060003373ffffffffffffffffffffffffffffffffffffffff1673ffffffffffffffffffffffffffffffffffffffff1681526020019081526020016000205482111561045d57600080fd5b600460008573ffffffffffffffffffffffffffffffffffffffff1673ffffffffffffffffffffffffffffffffffffffff168152602001908152602001600020548211156104a957600080fd5b81600460008673ffffffffffffffffffffffffffffffffffffffff1673ffffffffffffffffffffffffffffffffffffffff168152602001908152602001600020546104f49190610ca2565b600460008673ffffffffffffffffffffffffffffffffffffffff1673ffffffffffffffffffffffffffffffffffffffff1681526020019081526020016000208190555081600460008573ffffffffffffffffffffffffffffffffffffffff1673ffffffffffffffffffffffffffffffffffffffff168152602001908152602001600020546105829190610c4c565b600460008573ffffffffffffffffffffffffffffffffffffffff1673ffffffffffffffffffffffffffffffffffffffff1681526020019081526020016000208190555081600560008673ffffffffffffffffffffffffffffffffffffffff1673ffffffffffffffffffffffffffffffffffffffff16815260200190815260200160002060003373ffffffffffffffffffffffffffffffffffffffff1673ffffffffffffffffffffffffffffffffffffffff1681526020019081526020016000205461064d9190610ca2565b600560008673ffffffffffffffffffffffffffffffffffffffff1673ffffffffffffffffffffffffffffffffffffffff16815260200190815260200160002060003373ffffffffffffffffffffffffffffffffffffffff1673ffffffffffffffffffffffffffffffffffffffff168152602001908152602001600020819055508273ffffffffffffffffffffffffffffffffffffffff168473ffffffffffffffffffffffffffffffffffffffff167fddf252ad1be2c89b69c2b068fc378daa952ba7f163c4a11628f55a4df523b3ef8460405161072a9190610bfa565b60405180910390a3600190509392505050565b600260009054906101000a900460ff1681565b6005602052816000526040600020602052806000526040600020600091509150505481565b60046020528060005260406000206000915090505481565b6000805461079a90610d5e565b80601f01602080910402602001604051908101604052809291908181526020018280546107c690610d5e565b80156108135780601f106107e857610100808354040283529160200191610813565b820191906000526020600020905b8154815290600101906020018083116107f657829003601f168201915b505050505081565b60008073ffffffffffffffffffffffffffffffffffffffff168373ffffffffffffffffffffffffffffffffffffffff16141561085657600080fd5b600460003373ffffffffffffffffffffffffffffffffffffffff1673ffffffffffffffffffffffffffffffffffffffff168152602001908152602001600020548211156108a257600080fd5b81600460003373ffffffffffffffffffffffffffffffffffffffff1673ffffffffffffffffffffffffffffffffffffffff168152602001908152602001600020546108ed9190610ca2565b600460003373ffffffffffffffffffffffffffffffffffffffff1673ffffffffffffffffffffffffffffffffffffffff1681526020019081526020016000208190555081600460008573ffffffffffffffffffffffffffffffffffffffff1673ffffffffffffffffffffffffffffffffffffffff1681526020019081526020016000205461097b9190610c4c565b600460008573ffffffffffffffffffffffffffffffffffffffff1673ffffffffffffffffffffffffffffffffffffffff168152602001908152602001600020819055508273ffffffffffffffffffffffffffffffffffffffff163373ffffffffffffffffffffffffffffffffffffffff167fddf252ad1be2c89b69c2b068fc378daa952ba7f163c4a11628f55a4df523b3ef84604051610a1b9190610bfa565b60405180910390a36001905092915050565b600081359050610a3c81610e04565b92915050565b600081359050610a5181610e1b565b92915050565b600060208284031215610a6d57610a6c610dee565b5b6000610a7b84828501610a2d565b91505092915050565b60008060408385031215610a9b57610a9a610dee565b5b6000610aa985828601610a2d565b9250506020610aba85828601610a2d565b9150509250929050565b600080600060608486031215610add57610adc610dee565b5b6000610aeb86828701610a2d565b9350506020610afc86828701610a2d565b9250506040610b0d86828701610a42565b9150509250925092565b60008060408385031215610b2e57610b2d610dee565b5b6000610b3c85828601610a2d565b9250506020610b4d85828601610a42565b9150509250929050565b610b6081610ce8565b82525050565b6000610b7182610c30565b610b7b8185610c3b565b9350610b8b818560208601610d2b565b610b9481610df3565b840191505092915050565b610ba881610d14565b82525050565b610bb781610d1e565b82525050565b6000602082019050610bd26000830184610b57565b92915050565b60006020820190508181036000830152610bf28184610b66565b905092915050565b6000602082019050610c0f6000830184610b9f565b92915050565b6000602082019050610c2a6000830184610bae565b92915050565b600081519050919050565b600082825260208201905092915050565b6000610c5782610d14565b9150610c6283610d14565b9250827fffffffffffffffffffffffffffffffffffffffffffffffffffffffffffffffff03821115610c9757610c96610d90565b5b828201905092915050565b6000610cad82610d14565b9150610cb883610d14565b925082821015610ccb57610cca610d90565b5b828203905092915050565b6000610ce182610cf4565b9050919050565b60008115159050919050565b600073ffffffffffffffffffffffffffffffffffffffff82169050919050565b6000819050919050565b600060ff82169050919050565b60005b83811015610d49578082015181840152602081019050610d2e565b83811115610d58576000848401525b50505050565b60006002820490506001821680610d7657607f821691505b60208210811415610d8a57610d89610dbf565b5b50919050565b7f4e487b7100000000000000000000000000000000000000000000000000000000600052601160045260246000fd5b7f4e487b7100000000000000000000000000000000000000000000000000000000600052602260045260246000fd5b600080fd5b6000601f19601f8301169050919050565b610e0d81610cd6565b8114610e1857600080fd5b50565b610e2481610d14565b8114610e2f57600080fd5b5056fea2646970667358221220faac2f22d7488abf4f278486c3b69b041429227d0df0dd1dfe279c2d51c9790464736f6c63430008060033",
  "immutableReferences": {},
  "source": "// SPDX-License-Identifier: MIT\npragma solidity >=0.4.22 <0.9.0;\n\ncontract ResodeToken {\n    string public symbol = 'RESO';\n    string public name = 'Resode Token';\n    uint8 public decimals = 18;\n    uint256 public totalSupply = 1000000;\n\n    event Transfer(address indexed _from, address indexed _to, uint256 _value);\n    event Approval(address indexed _owner, address indexed _spender, uint256 _value);\n\n    mapping(address => uint256) public balanceOf;\n    mapping(address => mapping(address => uint)) public allowed; \n\n    constructor() {\n        symbol = 'RESO';\n        name = 'Resode Token';\n        decimals = 10;\n        totalSupply = 1000000;\n    }\n\n\n    function transfer(address _to, uint256 _value) public returns (bool success) {\n        require(_to != address(0)); \n        require(_value <= balanceOf[msg.sender]);\n        balanceOf[msg.sender] = balanceOf[msg.sender] - _value;\n        balanceOf[_to] = balanceOf[_to] + _value;\n        emit Transfer(msg.sender, _to, _value);\n        return true;\n    }\n\n    function approve(address _spender, uint256 _value) public returns (bool success) {\n        require(_value <= balanceOf[msg.sender]);// ?\n        allowed[msg.sender][_spender] = _value;\n        emit Approval(msg.sender, _spender, _value);\n        return true;\n    }\n\n    function transferFrom(address _from, address _to, uint  _value) public returns (bool success) {\n        require(_value <= allowed[_from][msg.sender]);\n        require(_value <= balanceOf[_from]);\n        balanceOf[_from] = balanceOf[_from] - _value;\n        balanceOf[_to] = balanceOf[_to] + _value;\n        allowed[_from][msg.sender] = allowed[_from][msg.sender] - _value;\n        emit Transfer(_from, _to, _value);\n        return true;\n    }\n}\n",
  "sourcePath": "/Users/Joa/Desktop/Dapps/Resode/truffle/contracts/ResodeToken.sol",
  "compiler": {
    "name": "solc",
    "version": "0.8.6+commit.11564f7e.Emscripten.clang"
  },
  "schemaVersion": "3.4.3",
  "updatedAt": "2022-03-11T05:21:38.025Z",
  "networkType": "ethereum",
  "devdoc": {
    "kind": "dev",
    "methods": {},
    "version": 1
  },
  "userdoc": {
    "kind": "user",
    "methods": {},
    "version": 1
  }
}