{
  "contractName": "Resode",
  "abi": [
    {
      "anonymous": false,
      "inputs": [
        {
          "indexed": true,
          "internalType": "bytes32",
          "name": "categoryId",
          "type": "bytes32"
        },
        {
          "indexed": false,
          "internalType": "string",
          "name": "categoryName",
          "type": "string"
        }
      ],
      "name": "CategoryCreated",
      "type": "event"
    },
    {
      "anonymous": false,
      "inputs": [
        {
          "indexed": true,
          "internalType": "bytes32",
          "name": "contentId",
          "type": "bytes32"
        },
        {
          "indexed": false,
          "internalType": "string",
          "name": "contentUri",
          "type": "string"
        }
      ],
      "name": "ContentAdded",
      "type": "event"
    },
    {
      "anonymous": false,
      "inputs": [
        {
          "indexed": true,
          "internalType": "bytes32",
          "name": "postId",
          "type": "bytes32"
        },
        {
          "indexed": true,
          "internalType": "address",
          "name": "postOwner",
          "type": "address"
        },
        {
          "indexed": false,
          "internalType": "bytes32",
          "name": "contentId",
          "type": "bytes32"
        },
        {
          "indexed": true,
          "internalType": "bytes32",
          "name": "parentPostId",
          "type": "bytes32"
        },
        {
          "indexed": false,
          "internalType": "bytes32",
          "name": "categoryId",
          "type": "bytes32"
        },
        {
          "indexed": false,
          "internalType": "string",
          "name": "contentUri",
          "type": "string"
        }
      ],
      "name": "PostCreated",
      "type": "event"
    },
    {
      "anonymous": false,
      "inputs": [
        {
          "indexed": true,
          "internalType": "bytes32",
          "name": "postId",
          "type": "bytes32"
        },
        {
          "indexed": true,
          "internalType": "address",
          "name": "postOwner",
          "type": "address"
        },
        {
          "indexed": true,
          "internalType": "address",
          "name": "voter",
          "type": "address"
        },
        {
          "indexed": false,
          "internalType": "uint80",
          "name": "reputationPostOwner",
          "type": "uint80"
        },
        {
          "indexed": false,
          "internalType": "uint80",
          "name": "reputationVoter",
          "type": "uint80"
        },
        {
          "indexed": false,
          "internalType": "int40",
          "name": "postVotes",
          "type": "int40"
        },
        {
          "indexed": false,
          "internalType": "bool",
          "name": "up",
          "type": "bool"
        },
        {
          "indexed": false,
          "internalType": "uint8",
          "name": "reputationAmount",
          "type": "uint8"
        }
      ],
      "name": "Voted",
      "type": "event"
    },
    {
      "inputs": [
        {
          "internalType": "bytes32",
          "name": "_categoryId",
          "type": "bytes32"
        },
        {
          "internalType": "bytes32",
          "name": "_parentPostId",
          "type": "bytes32"
        },
        {
          "internalType": "string",
          "name": "_contentUri",
          "type": "string"
        }
      ],
      "name": "createPost",
      "outputs": [],
      "stateMutability": "nonpayable",
      "type": "function"
    },
    {
      "inputs": [
        {
          "internalType": "bytes32",
          "name": "_postId",
          "type": "bytes32"
        },
        {
          "internalType": "uint8",
          "name": "_reputationChange",
          "type": "uint8"
        },
        {
          "internalType": "bool",
          "name": "_up",
          "type": "bool"
        }
      ],
      "name": "vote",
      "outputs": [],
      "stateMutability": "nonpayable",
      "type": "function"
    },
    {
      "inputs": [
        {
          "internalType": "string",
          "name": "_categoryName",
          "type": "string"
        }
      ],
      "name": "addCategory",
      "outputs": [],
      "stateMutability": "nonpayable",
      "type": "function"
    },
    {
      "inputs": [
        {
          "internalType": "bytes32",
          "name": "_contentId",
          "type": "bytes32"
        }
      ],
      "name": "getContent",
      "outputs": [
        {
          "internalType": "string",
          "name": "",
          "type": "string"
        }
      ],
      "stateMutability": "view",
      "type": "function",
      "constant": true
    },
    {
      "inputs": [
        {
          "internalType": "bytes32",
          "name": "_categoryId",
          "type": "bytes32"
        }
      ],
      "name": "getCategory",
      "outputs": [
        {
          "internalType": "string",
          "name": "",
          "type": "string"
        }
      ],
      "stateMutability": "view",
      "type": "function",
      "constant": true
    },
    {
      "inputs": [
        {
          "internalType": "address",
          "name": "_address",
          "type": "address"
        },
        {
          "internalType": "bytes32",
          "name": "_categoryID",
          "type": "bytes32"
        }
      ],
      "name": "getReputation",
      "outputs": [
        {
          "internalType": "uint80",
          "name": "",
          "type": "uint80"
        }
      ],
      "stateMutability": "view",
      "type": "function",
      "constant": true
    },
    {
      "inputs": [
        {
          "internalType": "bytes32",
          "name": "_postId",
          "type": "bytes32"
        }
      ],
      "name": "getPost",
      "outputs": [
        {
          "internalType": "address",
          "name": "",
          "type": "address"
        },
        {
          "internalType": "bytes32",
          "name": "",
          "type": "bytes32"
        },
        {
          "internalType": "bytes32",
          "name": "",
          "type": "bytes32"
        },
        {
          "internalType": "bytes32",
          "name": "",
          "type": "bytes32"
        },
        {
          "internalType": "int72",
          "name": "",
          "type": "int72"
        }
      ],
      "stateMutability": "view",
      "type": "function",
      "constant": true
    }
  ],
  "bytecode": "0x608060405234801561001057600080fd5b50611975806100206000396000f3fe608060405234801561001057600080fd5b506004361061007d5760003560e01c80635cc150011161005b5780635cc15001146100ea57806393e43bbe1461011a578063b2fae2721461014e578063d9cfa7de1461017e5761007d565b80631dcb11ec146100825780632e0dcbf71461009e578063473b084c146100ba575b600080fd5b61009c60048036038101906100979190610f1e565b61019a565b005b6100b860048036038101906100b39190610fe5565b610359565b005b6100d460048036038101906100cf9190610ef1565b6103e8565b6040516100e1919061128c565b60405180910390f35b61010460048036038101906100ff9190610ef1565b61048d565b604051610111919061128c565b60405180910390f35b610134600480360381019061012f9190610ef1565b610532565b6040516101459594939291906111d5565b60405180910390f35b61016860048036038101906101639190610eb1565b6105ee565b604051610175919061130e565b60405180910390f35b61019860048036038101906101939190610f92565b61065f565b005b6000339050600083836040516020016101b4929190611268565b60405160208183030381529060405280519060200120905060008286836040516020016101e393929190611198565b604051602081830303815290604052805190602001209050848460026000858152602001908152602001600020919061021d929190610d64565b508260008083815260200190815260200160002060000160006101000a81548173ffffffffffffffffffffffffffffffffffffffff021916908373ffffffffffffffffffffffffffffffffffffffff160217905550816000808381526020019081526020016000206001018190555085600080838152602001908152602001600020600201819055508660008083815260200190815260200160002060030181905550817ffb281bb05c5ef4b3a5f374fffc0b351fe69873776a9d6c289682e1929cb4f08086866040516102f2929190611268565b60405180910390a2858373ffffffffffffffffffffffffffffffffffffffff16827f9204ee15ea32319b16e4452d5008ab4090873b8255405aa89764af44609a7aef858b8a8a6040516103489493929190611228565b60405180910390a450505050505050565b6000828260405160200161036e929190611268565b60405160208183030381529060405280519060200120905082826001600084815260200190815260200160002091906103a8929190610d64565b50807f42588c2617ffb1b380decf15f2134bd59bb002295bda52fe6e5bf92fc504d24984846040516103db929190611268565b60405180910390a2505050565b606060016000838152602001908152602001600020805461040890611740565b80601f016020809104026020016040519081016040528092919081815260200182805461043490611740565b80156104815780601f1061045657610100808354040283529160200191610481565b820191906000526020600020905b81548152906001019060200180831161046457829003601f168201915b50505050509050919050565b60606002600083815260200190815260200160002080546104ad90611740565b80601f01602080910402602001604051908101604052809291908181526020018280546104d990611740565b80156105265780601f106104fb57610100808354040283529160200191610526565b820191906000526020600020905b81548152906001019060200180831161050957829003601f168201915b50505050509050919050565b600080600080600080600087815260200190815260200160002060000160009054906101000a900473ffffffffffffffffffffffffffffffffffffffff1660008088815260200190815260200160002060010154600080898152602001908152602001600020600201546000808a8152602001908152602001600020600301546000808b815260200190815260200160002060040160009054906101000a900460040b8060040b90509450945094509450945091939590929450565b6000600360008473ffffffffffffffffffffffffffffffffffffffff1673ffffffffffffffffffffffffffffffffffffffff168152602001908152602001600020600083815260200190815260200160002060009054906101000a900469ffffffffffffffffffff16905092915050565b60003390506000806000868152602001908152602001600020600301549050600080600087815260200190815260200160002060000160009054906101000a900473ffffffffffffffffffffffffffffffffffffffff1690508073ffffffffffffffffffffffffffffffffffffffff168373ffffffffffffffffffffffffffffffffffffffff161415610727576040517f08c379a000000000000000000000000000000000000000000000000000000000815260040161071e906112ee565b60405180910390fd5b60001515600460008573ffffffffffffffffffffffffffffffffffffffff1673ffffffffffffffffffffffffffffffffffffffff168152602001908152602001600020600088815260200190815260200160002060009054906101000a900460ff161515146107cb576040517f08c379a00000000000000000000000000000000000000000000000000000000081526004016107c2906112ae565b60405180910390fd5b6107d6838387610c88565b610815576040517f08c379a000000000000000000000000000000000000000000000000000000000815260040161080c906112ce565b60405180910390fd5b831561091757600160008088815260200190815260200160002060040160008282829054906101000a900460040b61084d9190611398565b92506101000a81548164ffffffffff021916908360040b64ffffffffff1602179055508460ff16600360008373ffffffffffffffffffffffffffffffffffffffff1673ffffffffffffffffffffffffffffffffffffffff168152602001908152602001600020600084815260200190815260200160002060008282829054906101000a900469ffffffffffffffffffff166108e89190611411565b92506101000a81548169ffffffffffffffffffff021916908369ffffffffffffffffffff160217905550610abb565b600080600088815260200190815260200160002060040160009054906101000a900460040b60040b131561099b57600160008088815260200190815260200160002060040160008282829054906101000a900460040b61097791906115c2565b92506101000a81548164ffffffffff021916908360040b64ffffffffff1602179055505b8460ff16600360008373ffffffffffffffffffffffffffffffffffffffff1673ffffffffffffffffffffffffffffffffffffffff168152602001908152602001600020600084815260200190815260200160002060009054906101000a900469ffffffffffffffffffff1669ffffffffffffffffffff1610610aba578460ff16600360008373ffffffffffffffffffffffffffffffffffffffff1673ffffffffffffffffffffffffffffffffffffffff168152602001908152602001600020600084815260200190815260200160002060008282829054906101000a900469ffffffffffffffffffff16610a8f919061163b565b92506101000a81548169ffffffffffffffffffff021916908369ffffffffffffffffffff1602179055505b5b6001600460008573ffffffffffffffffffffffffffffffffffffffff1673ffffffffffffffffffffffffffffffffffffffff168152602001908152602001600020600088815260200190815260200160002060006101000a81548160ff0219169083151502179055508273ffffffffffffffffffffffffffffffffffffffff168173ffffffffffffffffffffffffffffffffffffffff16877f01d21e353645a36d22513edbfe86f2d524130c25320a11ed375056ea54b427af600360008673ffffffffffffffffffffffffffffffffffffffff1673ffffffffffffffffffffffffffffffffffffffff168152602001908152602001600020600087815260200190815260200160002060009054906101000a900469ffffffffffffffffffff16600360008973ffffffffffffffffffffffffffffffffffffffff1673ffffffffffffffffffffffffffffffffffffffff168152602001908152602001600020600088815260200190815260200160002060009054906101000a900469ffffffffffffffffffff166000808d815260200190815260200160002060040160009054906101000a900460040b8a8c604051610c78959493929190611329565b60405180910390a4505050505050565b600080600360008673ffffffffffffffffffffffffffffffffffffffff1673ffffffffffffffffffffffffffffffffffffffff168152602001908152602001600020600085815260200190815260200160002060009054906101000a900469ffffffffffffffffffff16905060028169ffffffffffffffffffff161015610d2a5760018360ff1614610d1e576000915081610d24565b60019150815b50610d5c565b8069ffffffffffffffffffff16836002610d4491906114a4565b1115610d54576000915081610d5a565b60019150815b505b509392505050565b828054610d7090611740565b90600052602060002090601f016020900481019282610d925760008555610dd9565b82601f10610dab57803560ff1916838001178555610dd9565b82800160010185558215610dd9579182015b82811115610dd8578235825591602001919060010190610dbd565b5b509050610de69190610dea565b5090565b5b80821115610e03576000816000905550600101610deb565b5090565b600081359050610e16816118e3565b92915050565b600081359050610e2b816118fa565b92915050565b600081359050610e4081611911565b92915050565b60008083601f840112610e5c57610e5b611803565b5b8235905067ffffffffffffffff811115610e7957610e786117fe565b5b602083019150836001820283011115610e9557610e94611808565b5b9250929050565b600081359050610eab81611928565b92915050565b60008060408385031215610ec857610ec7611812565b5b6000610ed685828601610e07565b9250506020610ee785828601610e31565b9150509250929050565b600060208284031215610f0757610f06611812565b5b6000610f1584828501610e31565b91505092915050565b60008060008060608587031215610f3857610f37611812565b5b6000610f4687828801610e31565b9450506020610f5787828801610e31565b935050604085013567ffffffffffffffff811115610f7857610f7761180d565b5b610f8487828801610e46565b925092505092959194509250565b600080600060608486031215610fab57610faa611812565b5b6000610fb986828701610e31565b9350506020610fca86828701610e9c565b9250506040610fdb86828701610e1c565b9150509250925092565b60008060208385031215610ffc57610ffb611812565b5b600083013567ffffffffffffffff81111561101a5761101961180d565b5b61102685828601610e46565b92509250509250929050565b61103b8161166f565b82525050565b61105261104d8261166f565b611772565b82525050565b61106181611681565b82525050565b6110708161168d565b82525050565b6110876110828261168d565b611784565b82525050565b61109681611697565b82525050565b6110a5816116a4565b82525050565b60006110b78385611387565b93506110c48385846116fe565b6110cd83611817565b840190509392505050565b60006110e38261137c565b6110ed8185611387565b93506110fd81856020860161170d565b61110681611817565b840191505092915050565b600061111e602083611387565b915061112982611842565b602082019050919050565b6000611141603283611387565b915061114c8261186b565b604082019050919050565b6000611164601e83611387565b915061116f826118ba565b602082019050919050565b611183816116e8565b82525050565b611192816116db565b82525050565b60006111a48286611041565b6014820191506111b48285611076565b6020820191506111c48284611076565b602082019150819050949350505050565b600060a0820190506111ea6000830188611032565b6111f76020830187611067565b6112046040830186611067565b6112116060830185611067565b61121e608083018461109c565b9695505050505050565b600060608201905061123d6000830187611067565b61124a6020830186611067565b818103604083015261125d8184866110ab565b905095945050505050565b600060208201905081810360008301526112838184866110ab565b90509392505050565b600060208201905081810360008301526112a681846110d8565b905092915050565b600060208201905081810360008301526112c781611111565b9050919050565b600060208201905081810360008301526112e781611134565b9050919050565b6000602082019050818103600083015261130781611157565b9050919050565b6000602082019050611323600083018461117a565b92915050565b600060a08201905061133e600083018861117a565b61134b602083018761117a565b611358604083018661108d565b6113656060830185611058565b6113726080830184611189565b9695505050505050565b600081519050919050565b600082825260208201905092915050565b60006113a382611697565b91506113ae83611697565b925081647fffffffff038313600083121516156113ce576113cd6117a0565b5b817fffffffffffffffffffffffffffffffffffffffffffffffffffffff8000000000038312600083121615611406576114056117a0565b5b828201905092915050565b600061141c826116e8565b9150611427836116e8565b92508269ffffffffffffffffffff03821115611446576114456117a0565b5b828201905092915050565b6000808291508390505b600185111561149b57808604811115611477576114766117a0565b5b60018516156114865780820291505b808102905061149485611835565b945061145b565b94509492505050565b60006114af826116d1565b91506114ba836116db565b92506114e77fffffffffffffffffffffffffffffffffffffffffffffffffffffffffffffffff84846114ef565b905092915050565b6000826114ff57600190506115bb565b8161150d57600090506115bb565b8160018114611523576002811461152d5761155c565b60019150506115bb565b60ff84111561153f5761153e6117a0565b5b8360020a915084821115611556576115556117a0565b5b506115bb565b5060208310610133831016604e8410600b84101617156115915782820a90508381111561158c5761158b6117a0565b5b6115bb565b61159e8484846001611451565b925090508184048111156115b5576115b46117a0565b5b81810290505b9392505050565b60006115cd82611697565b91506115d883611697565b9250827fffffffffffffffffffffffffffffffffffffffffffffffffffffff800000000001821260008412151615611613576116126117a0565b5b82647fffffffff0182136000841216156116305761162f6117a0565b5b828203905092915050565b6000611646826116e8565b9150611651836116e8565b925082821015611664576116636117a0565b5b828203905092915050565b600061167a826116b1565b9050919050565b60008115159050919050565b6000819050919050565b60008160040b9050919050565b60008160080b9050919050565b600073ffffffffffffffffffffffffffffffffffffffff82169050919050565b6000819050919050565b600060ff82169050919050565b600069ffffffffffffffffffff82169050919050565b82818337600083830152505050565b60005b8381101561172b578082015181840152602081019050611710565b8381111561173a576000848401525b50505050565b6000600282049050600182168061175857607f821691505b6020821081141561176c5761176b6117cf565b5b50919050565b600061177d8261178e565b9050919050565b6000819050919050565b600061179982611828565b9050919050565b7f4e487b7100000000000000000000000000000000000000000000000000000000600052601160045260246000fd5b7f4e487b7100000000000000000000000000000000000000000000000000000000600052602260045260246000fd5b600080fd5b600080fd5b600080fd5b600080fd5b600080fd5b6000601f19601f8301169050919050565b60008160601b9050919050565b60008160011c9050919050565b7f796f75206861766520616c726561647920766f746564207468697320706f7374600082015250565b7f796f7520646f6e2774206861766520656e6f7567682072657075746174696f6e60008201527f20746f20766f7465207468697320706f73740000000000000000000000000000602082015250565b7f796f752063616e6e6f7420766f746520796f7572206f776e20706f7374730000600082015250565b6118ec8161166f565b81146118f757600080fd5b50565b61190381611681565b811461190e57600080fd5b50565b61191a8161168d565b811461192557600080fd5b50565b611931816116db565b811461193c57600080fd5b5056fea2646970667358221220a0d8d42268d3615d63de04b17fd48e25ff08f431102e30df1abf83c9580f7aec64736f6c63430008060033",
  "immutableReferences": {},
  "source": "// SPDX-License-Identifier: MIT\npragma solidity >=0.4.22 <0.9.0;\n\ncontract Resode {\n    event PostCreated(\n        bytes32 indexed postId,\n        address indexed postOwner,\n        bytes32 contentId,\n        bytes32 indexed parentPostId,\n        bytes32 categoryId,\n        string contentUri\n    );\n\n    event ContentAdded(bytes32 indexed contentId, string contentUri);\n\n    event Voted(\n        bytes32 indexed postId,\n        address indexed postOwner,\n        address indexed voter,\n        uint80 reputationPostOwner,\n        uint80 reputationVoter,\n        int40 postVotes,\n        bool up,\n        uint8 reputationAmount\n    );\n\n    event CategoryCreated(bytes32 indexed categoryId, string categoryName);\n\n    struct Post {\n        address postOwner;\n        bytes32 contentId;\n        bytes32 parentPostId;\n        bytes32 categoryId;\n        int40 votes;\n    }\n\n    mapping(bytes32 => Post) postRegistry;\n    mapping(bytes32 => string) categoryRegistry;\n    mapping(bytes32 => string) contentRegistry; // array de urls a guardar en IPFS\n    mapping(address => mapping(bytes32 => uint80)) reputationRegistry; // cada address tiene una reputacion (uint80) en cada categora (bytes32)\n    mapping(address => mapping(bytes32 => bool)) voteRegistry; // cada address tiene un registro de cada postId al que vot\n\n    function createPost(\n        bytes32 _categoryId,\n        bytes32 _parentPostId,\n        string calldata _contentUri\n    ) external {\n        address _postOwner = msg.sender;\n        bytes32 _contentId = keccak256(abi.encode(_contentUri));\n        bytes32 _postId = keccak256(abi.encodePacked(_postOwner, _parentPostId, _contentId));\n        contentRegistry[_contentId] = _contentUri;\n        postRegistry[_postId].postOwner = _postOwner;\n        postRegistry[_postId].contentId = _contentId;\n        postRegistry[_postId].parentPostId = _parentPostId;\n        postRegistry[_postId].categoryId = _categoryId;\n        emit ContentAdded(_contentId, _contentUri);\n        emit PostCreated(_postId, _postOwner, _contentId, _parentPostId, _categoryId, _contentUri);\n    }\n\n    function validateReputationChange(\n        address _sender,\n        bytes32 _categoryId,\n        uint8 _reputationChange\n    ) internal view returns (bool _result) {\n        uint80 _reputation = reputationRegistry[_sender][_categoryId];\n\n        if (_reputation < 2) {\n            _reputationChange == 1 ? _result = true : _result = false;\n        } else {\n            2**_reputationChange <= _reputation ? _result = true : _result = false;\n        }\n    }\n\n    function vote(\n        bytes32 _postId,\n        uint8 _reputationChange,\n        bool _up\n    ) external {\n        address _voter = msg.sender;\n        bytes32 _categoryId = postRegistry[_postId].categoryId;\n        address _contributor = postRegistry[_postId].postOwner;\n        require(_voter != _contributor, 'you cannot vote your own posts');\n        require(voteRegistry[_voter][_postId] == false, 'you have already voted this post');\n        require(\n            validateReputationChange(_voter, _categoryId, _reputationChange),\n            \"you don't have enough reputation to vote this post\"\n        );\n\n        if (_up) {\n            postRegistry[_postId].votes += 1;\n            reputationRegistry[_contributor][_categoryId] += _reputationChange;\n        } else {\n            if (postRegistry[_postId].votes > 0) {\n                postRegistry[_postId].votes -= 1;\n            }\n\n            if (reputationRegistry[_contributor][_categoryId] >= _reputationChange) {\n                reputationRegistry[_contributor][_categoryId] -= _reputationChange;\n            }\n        }\n\n        voteRegistry[_voter][_postId] = true;\n        emit Voted(\n            _postId,\n            _contributor,\n            _voter,\n            reputationRegistry[_contributor][_categoryId],\n            reputationRegistry[_voter][_categoryId],\n            postRegistry[_postId].votes,\n            _up,\n            _reputationChange\n        );\n    }\n\n    function addCategory(string calldata _categoryName) external {\n        bytes32 _categoryId = keccak256(abi.encode(_categoryName));\n        categoryRegistry[_categoryId] = _categoryName;\n        emit CategoryCreated(_categoryId, _categoryName);\n    }\n\n    function getContent(bytes32 _contentId) public view returns (string memory) {\n        return contentRegistry[_contentId];\n    }\n\n    function getCategory(bytes32 _categoryId) public view returns (string memory) {\n        return categoryRegistry[_categoryId];\n    }\n\n    function getReputation(address _address, bytes32 _categoryID) public view returns (uint80) {\n        return reputationRegistry[_address][_categoryID];\n    }\n\n    function getPost(bytes32 _postId)\n        public\n        view\n        returns (\n            address,\n            bytes32,\n            bytes32,\n            bytes32,\n            int72\n        )\n    {\n        return (\n            postRegistry[_postId].postOwner,\n            postRegistry[_postId].contentId,\n            postRegistry[_postId].parentPostId,\n            postRegistry[_postId].categoryId,\n            postRegistry[_postId].votes\n        );\n    }\n}\n",
  "sourcePath": "/Users/Joa/Desktop/Dapps/Resode/truffle/contracts/Resode.sol",
  "compiler": {
    "name": "solc",
    "version": "0.8.6+commit.11564f7e.Emscripten.clang"
  },
  "schemaVersion": "3.4.3",
  "updatedAt": "2021-12-03T21:11:13.532Z",
  "networkType": "ethereum",
  "devdoc": {
    "kind": "dev",
    "methods": {},
    "version": 1
  },
  "userdoc": {
    "kind": "user",
    "methods": {},
    "version": 1
  }
}